:100000000C94D4000C94FC000C94FC000C94FC00A8
:100010000C94FC000C94FC000C94FC000C94FC0070
:100020000C94FC000C94FC000C94D3040C9442053A
:100030000C94FC000C94FC000C94FC000C94FC0050
:100040000C94FC000C94FC000C94FC000C94FC0040
:100050000C94FC000C94FC000C94FC000C947407B1
:100060000C94FC000C94FC000C94FC000C94FC0020
:100070000C94FC000C94FC000C94FC000C94FC0010
:100080000C94FC000C94FC000C94FC000C94FC0000
:100090000C94FC000C94FC000C94FC000C94FC00F0
:1000A0000C94FC000C94BE070C94FC0000000000B3
:1000B0002300260029002C002F0000000002000968
:1000C0000F0000030401000C00000000000000000D
:1000D000000000000000000000080B000202020007
:1000E00000090400000102020000052400100105BF
:1000F00024010101042402060524060001070581EC
:100100000310004009040100020A00000007050274
:1001100002400000070583024000000403090412A6
:10012000010002EF02014041233780000101020378
:100130000141726475696E6F204C4C4300417264DA
:1001400075696E6F204D6963726F000000000025B5
:100150000028002B002E00310000000000240027A2
:10016000002A002D003000040404040403040502E6
:100170000202020403020202020606060606060442
:10018000040202020404040802011040804010200E
:10019000408040800802040180402010020110804D
:1001A0001020404020009B0811241FBECFEFDAE052
:1001B000DEBFCDBF11E0A0E0B1E0ECE6F6E202C0A8
:1001C00005900D92AC35B107D9F722E0ACE5B1E06E
:1001D00001C01D92AD3AB207E1F710E0C4EDD0E0E6
:1001E00004C02197FE010E94DE12C33DD107C9F76A
:1001F0000E94B5080C9434130C940000FC0180910B
:100200007A01882311F13FB7F89482E08093E900E6
:100210002091F200822F90E01816190614F481E064
:1002200090E0882339F0289A44E640937901409180
:10023000F1004083222339F02091F200211103C004
:100240002BE62093E8003FBF08958FEF9FEF0895BE
:100250002FB7F89483E08093E9009091E800892F0C
:10026000807295FF04C09091F20080E4891B2FBF3B
:1002700008958091710181110DC082E080936D011C
:1002800084E080936E011092700110926F0181E002
:10029000809371018DE691E008954091670150913E
:1002A0006801209165013091660142175307B4F44B
:1002B0009091E8009570E1F39091E80092FD19C0EB
:1002C0008093F100809167019091680101968F738E
:1002D0009927892B19F48EEF8093E80080916701AC
:1002E000909168010196909368018093670181E085
:1002F000089580E00895EF92FF920F931F93CF939C
:10030000DF93F82E192FE62E042F81E0860F880F39
:100310000E944D0183E00E944D01CF2DD12FEC0EA4
:10032000FD2EF11CCE15DF05B9F007FF13C0FE014D
:1003300084910E944D01182F80E00E944D0181237D
:1003400021968111EFCFDF91CF911F910F91FF90F7
:10035000EF9008958881EDCF81E0F5CFDF92EF92A5
:10036000FF920F931F93CF93DF93D82E8A01EB0157
:100370007B01E40EF51ECE15DF0559F0D7FE12C045
:10038000FE0184910E944D0121968111F4CF0FEF5F
:100390001FEFC801DF91CF911F910F91FF90EF9058
:1003A000DF9008958881EECF0F931F93CF93DF9353
:1003B0001F92CDB7DEB782E0898342E450E069ED59
:1003C00070E080E80E94AE010E943901DC011296C3
:1003D0000D911C910115110589F0D801ED91FC9149
:1003E0000280F381E02DBE016F5F7F4FC801099548
:1003F00097FD04C0F80100851185ECCF89810F902D
:10040000DF91CF911F910F910895615030F02091AD
:10041000F100FC0120830196F8CF289A84E68093AE
:1004200079010895CF93DF931F92CDB7DEB769832B
:10043000DC01ED91FC910280F381E02D41E050E080
:10044000BE016F5F7F4F09950F90DF91CF910895A7
:1004500083E08093E9008091F200882319F08AE319
:100460008093E80008950E94280190E00895CF93BA
:10047000DF931F92CDB7DEB7FC018485958597FD8C
:1004800008C02FEF3FEF358724870F90DF91CF9182
:100490000895CE0101960E94FE00019719F489810A
:1004A00090E0F3CF8FEF9FEFF0CF0F931F93CF9399
:1004B000DF931F92CDB7DEB78C01FC018485958553
:1004C00097FF0BC0CE0101960E94FE00019771F4C8
:1004D000898190E0F80195878487F8018485958566
:1004E0000F90DF91CF911F910F9108958FEF9FEFA4
:1004F000F1CFFC018485958597FD0BC09FB7F894DB
:1005000082E08093E9008091F2009FBF90E0019625
:1005100008959FB7F89482E08093E9008091F200FB
:100520009FBF90E0089581508F3008F047C0E82FBA
:10053000F0E0E356FD4F0C94DE12BA02BE02AC02AC
:10054000B202B602DE02DE02DE02C102C702CB0246
:10055000CF02D502DE02D902809180008F7780938E
:1005600080000895809180008F7DF9CF8091800078
:10057000877FF5CF84B58F7784BD089584B58F7D4F
:10058000FBCF809190008F778093900008958091A9
:1005900090008F7DF9CF80919000877FF5CF80917B
:1005A000C0008F778093C00008958091C0008F7D38
:1005B000F9CF8091C200877F8093C20008951F9376
:1005C000CF93DF93282F30E0F901E654FF4F849159
:1005D000F901EA57FE4FD491F901E959FE4FC49150
:1005E000CC23A9F0162F81110E949302EC2FF0E08A
:1005F000EE0FFF1FE55BFE4FA591B4918FB7F89406
:10060000EC91111108C0D095DE23DC938FBFDF91F0
:10061000CF911F910895DE2BF8CF3FB7F8948091CA
:10062000610190916201A0916301B091640126B5CE
:10063000A89B05C02F3F19F00196A11DB11D3FBF1A
:10064000BA2FA92F982F8827BC01CD01620F711DE9
:10065000811D911D42E0660F771F881F991F4A95E3
:10066000D1F70895CF92DF92EF92FF920E940D038F
:100670006B017C010E940D036C197D098E099F0995
:10068000683E734081059105A8F3FF90EF90DF90DD
:10069000CF9008958F929F92AF92BF92CF92DF92A8
:1006A000EF92FF920F931F93CF93DF936C017B0127
:1006B0008A0180910B01882309F458C080917A0146
:1006C000882309F453C080916B0180FF05C080919D
:1006D000E00082608093E000E801B12C8AEFA82E50
:1006E00093E0892E2AE3922E209711F4BB20B9F1D2
:1006F0000E942801811106C0AA94AA20B9F10E9483
:100700003203F2CF8C171D0611F00CF08C2F9FB71F
:10071000F8948092E9002091E80025FD02C09FBF77
:10072000E3CF282F30E0C21BD30BF701815020F01C
:1007300041914093F100FACFE20EF31EBB2021F06D
:100740009092E800B12CEBCF8091E80085FDE7CFD7
:100750009092E800BB24B394209709F3F3CF5D9AFD
:1007600084E680936A01101611063CF081E090E067
:10077000F6019383828310E000E0C801DF91CF91FE
:100780001F910F91FF90EF90DF90CF90BF90AF90AF
:100790009F908F900895CF92DF92EF92FF92CF9328
:1007A000DF93EC01072E000C880B990B0E948F1130
:1007B0006B017C0120E030E040E45FE30E943F12E7
:1007C00020E030E048E452E40E94E5100E94571116
:1007D000C617D707D4F020E030E040EA5FE3C70156
:1007E000B6010E943F1220E030E048E452E40E944B
:1007F000E51020E030E040E85FE30E9474100E94C2
:10080000571121E06C177D070CF420E0822F90E057
:10081000DF91CF91FF90EF90DF90CF9008958F926E
:100820009F92AF92BF92CF92DF92EF92FF920F937F
:100830001F93CF93DF93FC0120813181E0918701E9
:10084000F091880101E010E02E173F070CF045C041
:10085000D901AA0FBB1FE0918501F0918601EA0F33
:10086000FB1FA080B18089010095109501701127B0
:1008700020FD27C02CE93FEFEA016B017C01490113
:10088000840E951EB401C5010E94CB0321E030E027
:10089000892BD1F48C0E9D1EB401C5010E94CB039F
:1008A00022E030E0892B81F4BE01680D791DC5017D
:1008B0000E94CB0323E030E0892B31F40FEF1FEFD0
:1008C0000CC024E630E0D8CFF601808191810196FA
:1008D0008217930784F491838083C801DF91CF91BD
:1008E0001F910F91FF90EF90DF90CF90BF90AF904E
:1008F0009F908F90089511821082F70180819181DD
:100900000196E9CFFC0101900020E9F73197AF0192
:10091000481B590BBC018BE891E00C944A038F9261
:100920009F92AF92BF920F931F93CF93DF93CDB758
:10093000DEB7A1970FB6F894DEBF0FBECDBF19A2E8
:10094000423008F44AE08E010F5D1F4F842E912C37
:10095000B12CA12CA50194010E94BC12E62FB90173
:10096000CA01EA30F4F4E05DD801EE938D01232B47
:10097000242B252B79F790E080E0109719F0CD011A
:100980000E948204A1960FB6F894DEBF0FBECDBFC1
:10099000DF91CF911F910F91BF90AF909F908F905B
:1009A0000895E95CE1CF1F920F920FB60F921124C8
:1009B0008F939F938091E1009091E100937F9093BA
:1009C000E10083FF0FC01092E90091E09093EB00EB
:1009D0001092EC0092E39093ED0010927A0198E06F
:1009E0009093F00082FF22C093E09093E9009091F1
:1009F000F200992319F09AE39093E80090916A012C
:100A0000992341F090916A01915090936A0191115C
:100A100001C05D9890917901992341F090917901FD
:100A2000915090937901911101C0289884FF18C0CA
:100A30008091E2008E7E81608093E2008091E100EF
:100A40008F7E8093E10080916B018E7E8061809328
:100A50006B019F918F910F900FBE0F901F90189573
:100A600080FFF7CF8091E2008E7E80618093E2006C
:100A70008091E1008E7E8093E10080916B018E7EFB
:100A80008160E5CF1F920F920FB60F921124CF9283
:100A9000DF92EF92FF920F931F932F933F934F9309
:100AA0005F936F937F938F939F93AF93BF93EF93D6
:100AB000FF93CF93DF93CDB7DEB76C97DEBFCDBF8B
:100AC0001092E9008091E80083FF25C068E0CE0124
:100AD00045960E94050282EF8093E8008D8987FF8A
:100AE00039C09091E80090FFFCCF982F907609F0E4
:100AF00034C19E894F89588D2F89F88C911131C04E
:100B0000803861F580916C018093F1001092F100C2
:100B10008EEF8093E8006C960FB6F894DEBF0FBEA0
:100B2000CDBFDF91CF91FF91EF91BF91AF919F9199
:100B30008F917F916F915F914F913F912F911F9175
:100B40000F91FF90EF90DF90CF900F900FBE0F901E
:100B50001F9018959EEF9093E800C7CF1092F10078
:100B6000D5CF913059F48111D3CF4130510581F661
:100B700080916C018D7F80936C01CACF933049F4D2
:100B80008111C6CF4130510519F680916C01826008
:100B9000F2CF953041F48091E80080FFFCCF2068CF
:100BA0002093E300B5CF963009F0A9C00B8D1C8DC2
:100BB00022E01092E9001092680110926701F2128F
:100BC0002EC010926601109265010E94D4011F820E
:100BD00099E09983FA8291E09E8390EA98879AEF50
:100BE00099872091670130916801275F3F4F3C83CF
:100BF0002B838D831092E900109268011092670197
:100C0000109366010093650149E050E0BE016F5FFB
:100C10007F4F80E00E94AE010E94D40179CF1093F3
:100C20006601009365010E943901DC0112960D9165
:100C30001C910115110509F451C1D801ED91FC91E8
:100C40000480F581E02DBE016B5E7F4FC8010995E0
:100C5000009709F03EC1F80100851185EACFF3E065
:100C6000FF120EC08F89882309F440C0823061F4DE
:100C700040E86DE08DE391E00E947B01811148CF57
:100C800081E28093EB0047CF813029F440E86BE0AC
:100C900081E391E0F1CF833099F70E943901DC01C3
:100CA0001296ED90FC908E010F5F1F4F6801E114CA
:100CB000F10479F0D701ED91FC910680F781E02DE8
:100CC000B801C7010995080F111DF701E084F184EF
:100CD000EECFD8011C92F60101900020E9F7319780
:100CE000BF016C197D0940E0C601C6CF6BE171E020
:100CF000FB01449150E080E80E94AE0109CF97309B
:100D000009F4BECF983021F481E08093F10000CF48
:100D1000993009F0FDCE837009F0B2CFEDE0F1E03B
:100D200081E031E096E32191222371F08093E90084
:100D30003093EB00DF0111972C912093EC009093FE
:100D4000ED008F5F873079F78EE78093EA0010928D
:100D5000EA008F8980937A01DBCE8B8D9C8D109277
:100D6000E9001092680110926701909366018093E8
:100D70006501898D811192C08E899D89913A49F4CE
:100D8000813209F07DCF47E050E064E071E080E01F
:100D9000B3CF913209F074CF833269F48F89988D83
:100DA000B0E0A0E08093000190930101A0930201C4
:100DB000B0930301ADCE803269F48091E80082FFE8
:100DC000FCCF67E084E091E00E9405028BEF809306
:100DD000E8009ECE823209F09BCE8F8980930B0172
:100DE000EEEFFFE7859194918B3F9C4D51F1E0E050
:100DF000F8E08091040190910501A0910601B09165
:100E00000701803B9440A105B105F1F480910B01ED
:100E100080FD1AC0EE3F8AE0F80789F587E797E77B
:100E200091838083809160008093690188E19BE0D9
:100E30000FB6F894A895809360000FBE9093600061
:100E400067CEEEEFFAE0D5CF808191818737974763
:100E500009F05ECEA8958091600088618093600063
:100E60008091690180936000EE3F2AE0F20789F0EB
:100E70008091FE0A9091FF0A9183808349CE808100
:100E800091818737980751F29093FF0A8093FE0A69
:100E9000C5CF1092FF0A1092FE0A3ACE0E94390185
:100EA000DC0112960D911C910115110509F4E8CE93
:100EB000D801ED91FC910190F081E02DBE016B5EB7
:100EC0007F4FC8010995811123CEF8010085118556
:100ED000EBCF181619060CF41BCED2CEF1E0FF12A0
:100EE000BECE6FE171E004CF1F920F920FB60F924A
:100EF00011242F933F938F939F93AF93BF93809130
:100F00005D0190915E01A0915F01B091600130910F
:100F10005C0123E0230F2D3758F50196A11DB11D6B
:100F200020935C0180935D0190935E01A0935F012B
:100F3000B09360018091610190916201A091630181
:100F4000B09164010196A11DB11D80936101909340
:100F50006201A0936301B0936401BF91AF919F912F
:100F60008F913F912F910F900FBE0F901F9018956A
:100F700026E8230F0296A11DB11DD2CF1F920F921A
:100F80000FB60F9211242F933F934F935F936F935C
:100F90007F938F939F93AF93BF93CF93DF93EF9301
:100FA000FF932091DC0130E0F901E654FF4F84917A
:100FB000F901EA57FE4FD491F901E959FE4FC49166
:100FC000CC2379F081110E949302EC2FF0E0EE0F18
:100FD000FF1FE455FF4FA591B491EC91ED2381E003
:100FE00009F480E02091E0013091E1012F5F3F4F53
:100FF0003093E1012093E0019091DF01953618F0E4
:1010000096E09093DB019091DB01943009F466C087
:10101000B8F49230F1F0933009F444C09091DE01BD
:10102000992309F46BC081117CC08091DD01882374
:1010300009F463C08091DD0161E00E94DF025EC0BF
:10104000953009F457C0963049F791E09093AC027F
:101050004FC08111E3CF2091E0013091E1012436AE
:10106000310528F41092E1011092E001D7CF1092DF
:10107000AC021092DF01E091DF0191E09E0F9093AE
:10108000DF01F0E02091E0013091E101EE0FFF1F60
:10109000E552FE4F308727831092E1011092E00164
:1010A00093E019C0813009F0B9CFE091DF0191E000
:1010B0009E0F9093DF01F0E02091E0013091E1017B
:1010C000EE0FFF1FE552FE4F308727831092E1019C
:1010D0001092E00194E09093DB01A0CF882359F2B5
:1010E0002091E0013091E1012536310508F496CFD9
:1010F00095E0F1CF811192CFB5CF2D9AFF91EF916D
:10110000DF91CF91BF91AF919F918F917F916F911F
:101110005F914F913F912F910F900FBE0F901F90B5
:1011200018958091DD01882321F08091DD0160E038
:1011300084CF2D98E3CFEBE8F1E01382128288EEA2
:1011400093E0A0E0B0E084839583A683B78387E132
:1011500091E0918380838FEF9FEF95878487EBEDFC
:10116000F1E08DE0818313820895CF93DF93CDB7B3
:10117000DEB72C970FB6F894DEBF0FBECDBF7894C4
:1011800084B5826084BD84B5816084BD85B582608C
:1011900085BD85B5816085BD80916E00816080933D
:1011A0006E001092810080918100826080938100A6
:1011B00080918100816080938100809180008160B6
:1011C0008093800080919100826080939100809153
:1011D0009100816080939100809190008160809364
:1011E00090008091C10084608093C1008091C10013
:1011F00082608093C1008091C10081608093C100B2
:101200008091C30081608093C3008091C0008260A0
:101210008093C0008091C20081608093C200809161
:101220007A00846080937A0080917A008260809353
:101230007A0080917A00816080937A0080917A00B0
:10124000806880937A0010927A0110926C0110925B
:101250006B018091D70081608093D70080EA8093F2
:10126000D80089B5806189BD89B5826089BD09B41E
:1012700000FEFDCF0E9432038091D8008F7C8061F8
:101280008093D8008091E000807F8093E00080917F
:10129000E1008E7E8093E1008DE08093E200559A1C
:1012A000209A5D9828988FEF9FEF909398018093F4
:1012B0009701F8941092C00081E08093C1001092D1
:1012C000C2001092C3001092C40083E08093BF005C
:1012D00080E28093D1001092BF001092BF00109264
:1012E000BE0084E080937200789482E08093DB01FA
:1012F0001092DF018091DC0190E0FC01EA57FE4F83
:10130000249189599E4FFC0184918823C9F090E073
:10131000880F991FFC01E75AFE4F45915491FC013B
:10132000E55BFE4FA591B4919FB7F894FA018081D7
:101330002095822380838C91E22FE823EC939FBF3A
:1013400044244A94542C3201A0E22A2E312C82EEFD
:1013500091E090938601809385018091DF0190E078
:1013600090938801809387018091AC0290E09093E4
:101370008A01809389018091DB01853009F0A5C63F
:101380008091E4019091E501885891098D3591058E
:1013900008F051C08091DF01843009F58091E601A9
:1013A0009091E70180974797D0F48091E801909160
:1013B000E9010997099798F410928401109283012A
:1013C00040927F015092800160928101709282016F
:1013D00083E090E090937C0180937B015AC38091DD
:1013E000DF01843440F18091E6019091E70182545D
:1013F00091098E9700F590E080E040E050E0BA015E
:10140000FC01E851FE4F20813181295031092930FA
:10141000310588F4FC01E651FE4F208131812751CE
:1014200031092231310510F12081318126503109F5
:101430002730310588F18091DF018A3108F461C0DD
:101440008091E2019091E301843F914050F5109228
:1014500084011092830140927F015092800160923A
:101460008101709282018BE090E0B4CF440F551F50
:10147000661F771F416004968038910509F6309207
:1014800084012092830140937F01509380016093F7
:101490008101709382019CCF440F551F661F771FF7
:1014A000EACF8091E4019091E50185974B9748F54B
:1014B000EBEDF1E082E090E0C12CD12C76019C01B3
:1014C0002F5F3F4F4091DF014217130609F00CF4E4
:1014D000F6C043855485475051094730510508F0FF
:1014E000EDC025853685235131092F30310508F4AB
:1014F000D7C0258536852A5031092930310508F4B1
:10150000D8C08091DF018A3108F43FC08091E201A8
:101510009091E3018032934008F499CF8091E401E7
:101520009091E501C697869780F58091E6019091AC
:10153000E701C697869748F5EBEDF1E083E090E090
:10154000C12CD12C76019C012F5F3F4F4091DF01D0
:101550004217130609F00CF4DAC0458556854C5045
:1015600051094B30510508F0D1C0278530892552EB
:1015700031092B31310508F4BBC0278530892C5047
:1015800031092A30310508F4BCC08091DF01823274
:1015900038F18091E4019091E5010697079700F5F5
:1015A000EBEDF1E082E090E040E050E0BA01DC01D8
:1015B00011962091DF012A171B0609F00CF4D3C005
:1015C000238534852E5131092731310508F4B6C001
:1015D000238534852C5031092B30310508F4BDC0EA
:1015E0001C821B82E1E0F0E0FA83E9838091DF0155
:1015F0008D3008F4E9C049E753E0BE016D5F7F4FCD
:10160000CE0101960E940F04892B09F0DDC049E745
:1016100053E0BE016D5F7F4FCE0101960E940F0423
:10162000019709F0D1C049E753E0BE016D5F7F4FDC
:10163000CE0101960E940F048C01892B09F0C4C0D1
:10164000812C912C54012091DF0189819A812817E6
:10165000190609F00CF4A9C049E753E0BE016D5F1B
:101660007F4FCE0101960E940F047C0149E753E0B1
:10167000BE016D5F7F4FCE0101960E940F04F1E025
:10168000EF16F10409F088C0892B09F09DC0880C81
:10169000991CAA1CBB1C689480F80F5F1F4FD3CF06
:1016A000CC0CDD1CEE1CFF1C6894C0F8029634962E
:1016B00006CFCC0CDD1CEE1CFF1CF8CFC901019736
:1016C0009595879590938401809383010C972CF4D2
:1016D000109284011092830114CFC0927F01D092A6
:1016E0008001E0928101F092820184E090E072CE6C
:1016F000CC0CDD1CEE1CFF1C6894C0F802963496DE
:1017000022CFCC0CDD1CEE1CFF1CF8CFC9010197C9
:101710009595879590938401809383010C972CF481
:10172000109284011092830130CFC0927F01D09239
:101730008001E0928101F092820195CE440F551F05
:10174000661F771F41602585368534962350310901
:101750002530310538F402962ACF440F551F661FF5
:10176000771FF1CFCD0101979595879590938401CF
:101770008093830140972CF410928401109283018E
:101780002FCF40937F01509380016093810170932C
:1017900082018CE090E01ECEEF28B1F40197A1F415
:1017A000880C991CAA1CBB1C78CF10938401009351
:1017B000830180927F0190928001A0928101B0927A
:1017C000820181E090E006CE1C821B82A1E0B0E0A5
:1017D000BA83A98380918701909188011816190610
:1017E0000CF07EC0E0918501F091860182E090E0EE
:1017F0009A8389838281938189974E9708F070C07C
:1018000083E090E09A838983848195810B970A977E
:1018100008F066C04CEB51E0BE016D5F7F4FCE011A
:1018200001960E940F048C01892B09F059C04CEBE2
:1018300051E0BE016D5F7F4FCE0101960E940F0403
:10184000019709F04DC0812C912C54012091870102
:101850003091880189819A81821793070CF0E2C048
:101860004CEB51E0BE016D5F7F4FCE0101960E94AF
:101870000F047C010330110539F14CEB51E0BE013E
:101880006D5F7F4FCE0101960E940F046C01033003
:10189000110561F44CEB51E0BE016D5F7F4FCE014D
:1018A00001960E940F04C816D906D1F4E114F10480
:1018B00009F4ABC0EA94EF2899F4CD2889F4880C98
:1018C000991CAA1CBB1CABC04CEB51E0BE016D5F68
:1018D0007F4FCE0101960E940F04E816F90669F2C7
:1018E000E0918501F091860182819381C697869768
:1018F00078F5848195814B97459750F5DF011696D1
:101900007F0126ECE20EF11C20E030E040E050E0E8
:1019100060E070E080E090E00D911C91119709501B
:10192000110908301105A0F412960D911C9113971E
:10193000015111090D30110508F487C012960D915F
:101940001C911397045011090530110508F4B5C016
:101950008091DF01893380F18281938189579109D8
:101960008335910548F584819581CA97899720F53B
:101970009F012A5F3F4FC12CD12C760143E050E0FC
:10198000D9016D917C9111976A5071096930710587
:1019900098F412966D917C9113976651710961319B
:1019A000710508F48EC012966D917C916650710994
:1019B0006730710508F4B4C08091DF01823209F00C
:1019C000B4C0828193810A97099708F0AEC0A091B4
:1019D000DF01B0E0A150B048AA0FBB1FAE0FBF1F80
:1019E0008D919C910A97099708F09FC010928401ED
:1019F0001092830140927F01509280016092810198
:101A00007092820186E090E0E5CCCA94CD2809F07E
:101A100067CF880C991CAA1CBB1C689480F80F5FC8
:101A20001F4F14CF109384010093830180927F0194
:101A300090928001A0928101B0928201E2E0F0E0F8
:101A4000F0937C01E0937B0124C001E00E94EF123F
:101A500021601496AE15BF0509F05ECF20937F017B
:101A600030938001409381015093820100E20E94F3
:101A70000A1320937D0130937E0185E090E09093DE
:101A80007C0180937B0180E390E0909384018093BC
:101A9000830185E291E00E94820480917B01909114
:101AA0007C018230910509F41BC30CF0C9C2019777
:101AB00009F413C38DE391E0CEC201E00E94EF125E
:101AC000C8CFD701C601880F991FAA1FBB1F6C0181
:101AD0007D016894C0F84E5F5F4F2C5F3F4F4B33E2
:101AE000510509F04DCF9F012A583F4FD9012D9143
:101AF0003C912A5031092930310508F05DCF2CE1A5
:101B000030E03093840120938301C0927F01D09212
:101B10008001E0928101F09282018AE090E05ACC4B
:101B2000CC0CDD1CEE1CFF1CD6CF82819381895723
:101B300091098335910560F58091DF01813240F193
:101B400084819581CA97899718F59F012A5F3F4F35
:101B5000C12CD12C760143E050E0D9016D917C91EC
:101B600011976A5071096930710590F412966D9160
:101B70007C911397665171096131710580F112965C
:101B80006D917C91665071096730710508F454C0FD
:101B9000828193818C549109C59708F081C080910E
:101BA000DF01843009F04DC084819581809747978B
:101BB00008F047C0868197810997099708F041C0CE
:101BC000109284011092830140927F015092800113
:101BD000609281017092820187E090E0FBCBD70197
:101BE000C601880F991FAA1FBB1F6C017D01689455
:101BF000C0F84E5F5F4F2C5F3F4F4332510509F0F5
:101C0000ACCF9F012A5B3F4FD9012D913C912A50C7
:101C100031092930310508F0BBCF20E130E03093A5
:101C2000840120938301C0927F01D0928001E092D1
:101C30008101F0928201E6CECC0CDD1CEE1CFF1C73
:101C4000D8CF8091DF01843458F184819581895403
:101C50009109C39728F59F012A5F3F4FBF016A573B
:101C60007F4FC12CD12C7601D9014D915C911197F8
:101C7000495051094930510598F412964D915C91A3
:101C80001397465151094131510508F4A2C01296EB
:101C90004D915C91465051094730510508F4B6C04A
:101CA0008091DF018634C0F1828193810C970B977C
:101CB00098F5848195810997099770F586819781B8
:101CC0008C974F9748F58085918589974D9720F59A
:101CD0009F01265F3F4FC12CD12C760145E050E09B
:101CE000D9016D917C9111976C5071096B30710520
:101CF00098F412966D917C9113976E51710967312A
:101D0000710508F488C012966D917C916950710933
:101D10006930710508F4ACC08091DF01883508F4A2
:101D2000B6C082819381855891098B35910508F061
:101D3000AEC084819581825491098E9708F0A7C026
:101D40008F01045C1F4F8DE190E030E020E0409176
:101D5000DF014450550B8417950714F5A801425034
:101D60005109DA014D915C914950510948305105B2
:101D700008F08DC0BC016F5F7F4FD8014D915C9121
:101D80001197475051094730510508F476C04D91DD
:101D90005C91485151094231510508F475C0CB019D
:101DA00001979595879590938401809383018A97F5
:101DB0000CF46DC0C901330FAA0BBB0B80937F01DC
:101DC00090938001A0938101B093820189E090E01B
:101DD00001CBD701C601880F991FAA1FBB1F6C0139
:101DE0007D016894C0F82C5F3F4F6217730709F0BC
:101DF0003BCF3092840120928301C0927F01D09228
:101E00008001E0928101F0928201E6CECC0CDD1CD3
:101E1000EE1CFF1CE8CFD701C601880F991FAA1F2F
:101E2000BB1F6C017D016894C0F84E5F5F4F2C5F53
:101E30003F4F4534510509F053CF9F0126573F4F7F
:101E4000D9012D913C912C5031092B30310508F0EE
:101E500063CF3092840120928301C0927F01D0929F
:101E60008001E0928101F092820188E090E0B2CAA4
:101E7000CC0CDD1CEE1CFF1CD8CF220F331F2160C1
:101E800002960C5F1F4F63CF220F331FF9CF809153
:101E9000DF01803279F5828193810697069750F5AC
:101EA000848195810997099728F59F012A5F3F4F03
:101EB000BF01625C7F4FC12CD12C7601D9014D91BD
:101EC0005C911197465051094630510598F412968D
:101ED0004D915C911397495151094331510508F4D3
:101EE00089C012964D915C91495051094930510574
:101EF00008F4A1C0809187019091880198878F8311
:101F000006970CF4DDC0DF011296BE83AD8385EC2D
:101F1000C82E8DE9D82E8CE1E82E81E8F82E03E05A
:101F200010E0ED81FE8164817581A080B18090E038
:101F300080E00E948D1169877A878B879C87B50125
:101F400090E080E00E948D114B015C012DEC3CEC97
:101F50004CE45FE30E943F129B01AC0169857A85E6
:101F60008B859C850E94E010F0E0E0E087FD16C0C4
:101F70002DEC3CEC4CE45FE369857A858B859C8590
:101F80000E943F129B01AC01C501B4010E94E01008
:101F9000E2E0F0E087FD02C0E1E0F0E0A701960199
:101FA00063E971E080E091E00E94AC126F01FF0FE5
:101FB000EE08FF08C626D726E826F9260F5F1F4F32
:101FC0008D819E8102969E838D83AF81B885A017F7
:101FD000B10709F0A6CFC0927F01D0928001E092B4
:101FE0008101F09282013092840120928301EFEF0F
:101FF000FFEF26CDD701C601880F991FAA1FBB1F6F
:102000006C017D016894C0F82C5F3F4F6217730725
:1020100009F054CFEEE0F0E0F0938401E093830107
:10202000C0927F01D0928001E0928101F092820102
:102030008FE090E0CFC9CC0CDD1CEE1CFF1CE4CF80
:102040008330910531F0049709F034CD80E391E0BD
:1020500002C08CE291E00E94820485E491E00E943B
:10206000820460917F017091800180918101909143
:10207000820140E10E948F048FE491E00E9482047B
:10208000C0908301D09084010D2C000CEE08FF0855
:102090004AE0C701B601F7FE0DC06DE28BE891E0A2
:1020A0000E94120266277727CB016C197D098E09E1
:1020B0009F094AE00E948F0488E591E00E94820413
:1020C00082E08093DB011092DF0180E090E0892BB9
:1020D00009F43DC90E94000037C985E391E0BBCFF8
:1020E00089E391E0B8CF5058BB27AA270E948B10F4
:1020F0000C9405120E94F71138F00E94FE1120F096
:1021000039F49F3F19F426F40C94F4110EF4E09581
:10211000E7FB0C94EE11E92F0E94161258F3BA1740
:10212000620773078407950720F079F4A6F50C94ED
:1021300038120EF4E0950B2EBA2FA02D0B01B90129
:1021400090010C01CA01A0011124FF27591B99F02D
:10215000593F50F4503E68F11A16F040A22F232F39
:10216000342F4427585FF3CF469537952795A79589
:10217000F0405395C9F77EF41F16BA0B620B730B30
:10218000840BBAF09150A1F0FF0FBB1F661F771FA1
:10219000881FC2F70EC0BA0F621F731F841F48F456
:1021A000879577956795B795F7959E3F08F0B0CFDF
:1021B0009395880F08F09927EE0F979587950895C6
:1021C0000E94CA1108F481E008950E94F9100C944D
:1021D00005120E94FE1158F00E94F71140F029F4F8
:1021E0005F3F29F00C94EE1151110C9439120C94AC
:1021F000F4110E94161268F39923B1F3552391F359
:10220000951B550BBB27AA2762177307840738F065
:102210009F5F5F4F220F331F441FAA1FA9F335D0C2
:102220000E2E3AF0E0E832D091505040E695001C76
:10223000CAF72BD0FE2F29D0660F771F881FBB1F30
:10224000261737074807AB07B0E809F0BB0B802D0E
:10225000BF01FF2793585F4F3AF09E3F510578F03A
:102260000C94EE110C9439125F3FE4F3983ED4F3D2
:10227000869577956795B795F7959F5FC9F7880F0E
:10228000911D9695879597F90895E1E0660F771F60
:10229000881FBB1F621773078407BA0720F0621BF1
:1022A000730B840BBA0BEE1F88F7E09508950E941C
:1022B0005E116894B1110C94391208950E941E1297
:1022C00088F09F5798F0B92F9927B751B0F0E1F0F7
:1022D000660F771F881F991F1AF0BA95C9F714C0A7
:1022E000B13091F00E943812B1E008950C94381288
:1022F000672F782F8827B85F39F0B93FCCF38695E0
:1023000077956795B395D9F73EF49095809570953C
:1023100061957F4F8F4F9F4F0895E89409C097FBB9
:102320003EF490958095709561957F4F8F4F9F4FAC
:102330009923A9F0F92F96E9BB279395F6958795F0
:1023400077956795B795F111F8CFFAF4BB0F11F4B3
:1023500060FF1BC06F5F7F4F8F4F9F4F16C088235A
:1023600011F096E911C0772321F09EE8872F762F90
:1023700005C0662371F096E8862F70E060E02AF0D1
:102380009A95660F771F881FDAF7880F96958795BD
:1023900097F90895990F0008550FAA0BE0E8FEEF92
:1023A00016161706E807F907C0F012161306E40719
:1023B000F50798F0621B730B840B950B39F40A2612
:1023C00061F0232B242B252B21F408950A2609F4F0
:1023D000A140A6958FEF811D811D089597F99F67F4
:1023E00080E870E060E008959FEF80EC089500249D
:1023F0000A941616170618060906089500240A946A
:1024000012161306140605060895092E0394000CEF
:1024100011F4882352F0BB0F40F4BF2B11F460FF7E
:1024200004C06F5F7F4F8F4F9F4F089557FD9058A7
:10243000440F551F59F05F3F71F04795880F97FB88
:10244000991F61F09F3F79F0879508951216130642
:102450001406551FF2CF4695F1DF08C01616170671
:102460001806991FF1CF86957105610508940895A6
:10247000E894BB2766277727CB0197F908950E9438
:1024800052120C9405120E94F71138F00E94FE11AE
:1024900020F0952311F00C94EE110C94F4111124FA
:1024A0000C9439120E94161270F3959FC1F3950F88
:1024B00050E0551F629FF001729FBB27F00DB11DC8
:1024C000639FAA27F00DB11DAA1F649F6627B00D58
:1024D000A11D661F829F2227B00DA11D621F739F41
:1024E000B00DA11D621F839FA00D611D221F749F4F
:1024F0003327A00D611D231F849F600D211D822F96
:10250000762F6A2F11249F5750409AF0F1F08823BC
:102510004AF0EE0FFF1FBB1F661F771F881F9150E9
:102520005040A9F79E3F510580F00C94EE110C9499
:1025300039125F3FE4F3983ED4F38695779567951B
:10254000B795F795E7959F5FC1F7FE2B880F911D13
:102550009695879597F90895DB018F939F930E9435
:10256000E412BF91AF91A29F800D911DA39F900D8A
:10257000B29F900D11240895A1E21A2EAA1BBB1B35
:10258000FD010DC0AA1FBB1FEE1FFF1FA217B3073F
:10259000E407F50720F0A21BB30BE40BF50B661F55
:1025A000771F881F991F1A9469F760957095809519
:1025B00090959B01AC01BD01CF010895EE0FFF1F67
:1025C0000590F491E02D09940E942513A59F900D8C
:1025D000B49F900DA49F800D911D11240895002E8D
:1025E000083090F0982F872F762F652F542F432F88
:1025F000322F22270850F4CF220F331F441F551FBC
:10260000661F771F881F991F0A95B2F7002D08953E
:1026100097FD1094002E083098F00850232F342F87
:10262000452F562F672F782F892F912DF4CF159492
:1026300097958795779567955795479537952795FA
:102640000A95AAF71124002D0895A29FB001B39F07
:10265000C001A39F700D811D1124911DB29F700DAB
:0C266000811D1124911D0895F894FFCFF6
:10266C00FFFFFFFF00E100000000000000C18081BF
:10267C000000000000000012024A03330228027915
:10268C000237025502547970653A20004E454300DA
:10269C00534F4E59005243350052433600556E6B22
:1026AC006E6F776E002C2056616C75653A20002C8D
:0C26BC0020426974733A20000D0A0000EF
:00000001FF
