:100000000C94D4000C94FC000C94FC000C94FC00A8
:100010000C94FC000C94FC000C94FC000C94FC0070
:100020000C94FC000C94FC000C9482040C94F104DD
:100030000C94FC000C94FC000C94FC000C94FC0050
:100040000C94FC000C94FC000C94FC000C94FC0040
:100050000C94FC000C94FC000C94FC000C94230702
:100060000C94FC000C94FC000C94FC000C94FC0020
:100070000C94FC000C94FC000C94FC000C94FC0010
:100080000C94FC000C94FC000C94FC000C94FC0000
:100090000C94FC000C94FC000C94FC000C94FC00F0
:1000A0000C94FC000C946D070C94FC000000000004
:1000B0002300260029002C002F0000000002000968
:1000C0000F0000030401000C00000000000000000D
:1000D000000000000000000000080B000202020007
:1000E00000090400000102020000052400100105BF
:1000F00024010101042402060524060001070581EC
:100100000310004009040100020A00000007050274
:1001100002400000070583024000000403090412A6
:10012000010002EF02014041233780000101020378
:100130000141726475696E6F204C4C4300417264DA
:1001400075696E6F204D6963726F000000000025B5
:100150000028002B002E00310000000000240027A2
:10016000002A002D003000040404040403040502E6
:100170000202020403020202020606060606060442
:10018000040202020404040802011040804010200E
:10019000408040800802040180402010020110804D
:1001A0001020404020004A0811241FBECFEFDAE0A3
:1001B000DEBFCDBF11E0A0E0B1E0E8E4F5E202C0AF
:1001C00005900D92A832B107D9F722E0A8E2B1E07C
:1001D00001C01D92A937B207E1F710E0C4EDD0E0ED
:1001E00004C02197FE010E944C12C33DD107C9F7FC
:1001F0000E9464080C94A2120C940000FC018091EF
:100200004601882311F13FB7F89482E08093E9001A
:100210002091F200822F90E01816190614F481E064
:1002200090E0882339F0289A44E6409345014091B4
:10023000F1004083222339F02091F200211103C004
:100240002BE62093E8003FBF08958FEF9FEF0895BE
:100250002FB7F89483E08093E9009091E800892F0C
:10026000807295FF04C09091F20080E4891B2FBF3B
:10027000089580913D0181110DC082E08093390184
:1002800084E080933A0110923C0110923B0181E09E
:1002900080933D0189E391E00895409133015091AD
:1002A0003401209131013091320142175307B4F4E7
:1002B0009091E8009570E1F39091E80092FD19C0EB
:1002C0008093F100809133019091340101968F73F6
:1002D0009927892B19F48EEF8093E80080913301E0
:1002E000909134010196909334018093330181E021
:1002F000089580E00895EF92FF920F931F93CF939C
:10030000DF93F82E192FE62E042F81E0860F880F39
:100310000E944D0183E00E944D01CF2DD12FEC0EA4
:10032000FD2EF11CCE15DF05B9F007FF13C0FE014D
:1003300084910E944D01182F80E00E944D0181237D
:1003400021968111EFCFDF91CF911F910F91FF90F7
:10035000EF9008958881EDCF81E0F5CFDF92EF92A5
:10036000FF920F931F93CF93DF93D82E8A01EB0157
:100370007B01E40EF51ECE15DF0559F0D7FE12C045
:10038000FE0184910E944D0121968111F4CF0FEF5F
:100390001FEFC801DF91CF911F910F91FF90EF9058
:1003A000DF9008958881EECF0F931F93CF93DF9353
:1003B0001F92CDB7DEB782E0898342E450E069ED59
:1003C00070E080E80E94AE010E943901DC011296C3
:1003D0000D911C910115110589F0D801ED91FC9149
:1003E0000280F381E02DBE016F5F7F4FC801099548
:1003F00097FD04C0F80100851185ECCF89810F902D
:10040000DF91CF911F910F910895615030F02091AD
:10041000F100FC0120830196F8CF289A84E68093AE
:1004200045010895CF93DF931F92CDB7DEB769835F
:10043000DC01ED91FC910280F381E02D41E050E080
:10044000BE016F5F7F4F09950F90DF91CF910895A7
:1004500083E08093E9008091F200882319F08AE319
:100460008093E80008950E94280190E00895CF93BA
:10047000DF931F92CDB7DEB7FC018485958597FD8C
:1004800008C02FEF3FEF358724870F90DF91CF9182
:100490000895CE0101960E94FE00019719F489810A
:1004A00090E0F3CF8FEF9FEFF0CF0F931F93CF9399
:1004B000DF931F92CDB7DEB78C01FC018485958553
:1004C00097FF0BC0CE0101960E94FE00019771F4C8
:1004D000898190E0F80195878487F8018485958566
:1004E0000F90DF91CF911F910F9108958FEF9FEFA4
:1004F000F1CFFC018485958597FD0BC09FB7F894DB
:1005000082E08093E9008091F2009FBF90E0019625
:1005100008959FB7F89482E08093E9008091F200FB
:100520009FBF90E0089581508F3008F047C0E82FBA
:10053000F0E0E356FD4F0C944C12BA02BE02AC023E
:10054000B202B602DE02DE02DE02C102C702CB0246
:10055000CF02D502DE02D902809180008F7780938E
:1005600080000895809180008F7DF9CF8091800078
:10057000877FF5CF84B58F7784BD089584B58F7D4F
:10058000FBCF809190008F778093900008958091A9
:1005900090008F7DF9CF80919000877FF5CF80917B
:1005A000C0008F778093C00008958091C0008F7D38
:1005B000F9CF8091C200877F8093C20008951F9376
:1005C000CF93DF93282F30E0F901E654FF4F849159
:1005D000F901EA57FE4FD491F901E959FE4FC49150
:1005E000CC23A9F0162F81110E949302EC2FF0E08A
:1005F000EE0FFF1FE55BFE4FA591B4918FB7F89406
:10060000EC91111108C0D095DE23DC938FBFDF91F0
:10061000CF911F910895DE2BF8CF3FB7F8948091CA
:100620002D0190912E01A0912F01B091300126B59E
:10063000A89B05C02F3F19F00196A11DB11D3FBF1A
:10064000BA2FA92F982F8827BC01CD01620F711DE9
:10065000811D911D42E0660F771F881F991F4A95E3
:10066000D1F70895CF92DF92EF92FF920E940D038F
:100670006B017C010E940D036C197D098E099F0995
:10068000683E734081059105A8F3FF90EF90DF90DD
:10069000CF9008958F929F92AF92BF92CF92DF92A8
:1006A000EF92FF920F931F93CF93DF936C017B0127
:1006B0008A0180910B01882309F458C0809146017A
:1006C000882309F453C08091370180FF05C08091D1
:1006D000E00082608093E000E801B12C8AEFA82E50
:1006E00093E0892E2AE3922E209711F4BB20B9F1D2
:1006F0000E942801811106C0AA94AA20B9F10E9483
:100700003203F2CF8C171D0611F00CF08C2F9FB71F
:10071000F8948092E9002091E80025FD02C09FBF77
:10072000E3CF282F30E0C21BD30BF701815020F01C
:1007300041914093F100FACFE20EF31EBB2021F06D
:100740009092E800B12CEBCF8091E80085FDE7CFD7
:100750009092E800BB24B394209709F3F3CF5D9AFD
:1007600084E680933601101611063CF081E090E09B
:10077000F6019383828310E000E0C801DF91CF91FE
:100780001F910F91FF90EF90DF90CF90BF90AF90AF
:100790009F908F900895CF92DF92EF92FF92CF9328
:1007A000DF93EC01072E000C880B990B0E941F11A0
:1007B0006B017C0120E030E040E45FE30E94CF1158
:1007C00020E030E048E452E40E9475100E94E710F7
:1007D000C617D707D4F020E030E040EA5FE3C70156
:1007E000B6010E94CF1120E030E048E452E40E94BC
:1007F000751020E030E040E85FE30E9404100E94A2
:10080000E71021E06C177D070CF420E0822F90E0C8
:10081000DF91CF91FF90EF90DF90CF9008958F926E
:100820009F92AF92BF92CF92DF92EF92FF920F937F
:100830001F93CF93DF93FC0120813181E09153011D
:10084000F091540101E010E02E173F070CF045C075
:10085000D901AA0FBB1FE0915101F0915201EA0F9B
:10086000FB1FA080B18089010095109501701127B0
:1008700020FD27C02CE93FEFEA016B017C01490113
:10088000840E951EB401C5010E94CB0321E030E027
:10089000892BD1F48C0E9D1EB401C5010E94CB039F
:1008A00022E030E0892B81F4BE01680D791DC5017D
:1008B0000E94CB0323E030E0892B31F40FEF1FEFD0
:1008C0000CC024E630E0D8CFF601808191810196FA
:1008D0008217930784F491838083C801DF91CF91BD
:1008E0001F910F91FF90EF90DF90CF90BF90AF904E
:1008F0009F908F90089511821082F70180819181DD
:100900000196E9CF1F920F920FB60F9211248F9389
:100910009F938091E1009091E100937F9093E1009B
:1009200083FF0FC01092E90091E09093EB001092CA
:10093000EC0092E39093ED001092460198E09093C2
:10094000F00082FF22C093E09093E9009091F200C2
:10095000992319F09AE39093E80090913601992336
:1009600041F090913601915090933601911101C060
:100970005D9890914501992341F0909145019150E6
:1009800090934501911101C0289884FF18C080916F
:10099000E2008E7E81608093E2008091E1008F7E94
:1009A0008093E100809137018E7E806180933701D2
:1009B0009F918F910F900FBE0F901F90189580FF01
:1009C000F7CF8091E2008E7E80618093E20080917B
:1009D000E1008E7E8093E100809137018E7E816000
:1009E000E5CF1F920F920FB60F921124CF92DF9294
:1009F000EF92FF920F931F932F933F934F935F9329
:100A00006F937F938F939F93AF93BF93EF93FF93D6
:100A1000CF93DF93CDB7DEB76C97DEBFCDBF10921B
:100A2000E9008091E80083FF25C068E0CE0145968B
:100A30000E94050282EF8093E8008D8987FF39C00C
:100A40009091E80090FFFCCF982F907609F034C188
:100A50009E894F89588D2F89F88C911131C080382B
:100A600061F5809138018093F1001092F1008EEFD2
:100A70008093E8006C960FB6F894DEBF0FBECDBF32
:100A8000DF91CF91FF91EF91BF91AF919F918F91A6
:100A90007F916F915F914F913F912F911F910F9196
:100AA000FF90EF90DF90CF900F900FBE0F901F90B0
:100AB00018959EEF9093E800C7CF1092F100D5CF24
:100AC000913059F48111D3CF4130510581F6809195
:100AD00038018D7F80933801CACF933049F481115A
:100AE000C6CF4130510519F6809138018260F2CFAE
:100AF000953041F48091E80080FFFCCF206820937E
:100B0000E300B5CF963009F0A9C00B8D1C8D22E013
:100B10001092E9001092340110923301F2122EC0AB
:100B200010923201109231010E94D4011F8299E08B
:100B30009983FA8291E09E8390EA98879AEF998749
:100B40002091330130913401275F3F4F3C832B8349
:100B50008D831092E90010923401109233011093AA
:100B600032010093310149E050E0BE016F5F7F4FD9
:100B700080E00E94AE010E94D40179CF109332012F
:100B8000009331010E943901DC0112960D911C91F4
:100B90000115110509F451C1D801ED91FC910480B2
:100BA000F581E02DBE016B5E7F4FC801099500976E
:100BB00009F03EC1F80100851185EACFF3E0FF128C
:100BC0000EC08F89882309F440C0823061F440E868
:100BD0006DE08DE391E00E947B01811148CF81E2BD
:100BE0008093EB0047CF813029F440E86BE081E34C
:100BF00091E0F1CF833099F70E943901DC01129620
:100C0000ED90FC908E010F5F1F4F6801E114F1041D
:100C100079F0D701ED91FC910680F781E02DB801C4
:100C2000C7010995080F111DF701E084F184EECF8B
:100C3000D8011C92F60101900020E9F73197BF011D
:100C40006C197D0940E0C601C6CF6BE171E0FB0184
:100C5000449150E080E80E94AE0109CF973009F43A
:100C6000BECF983021F481E08093F10000CF99301D
:100C700009F0FDCE837009F0B2CFEDE0F1E081E044
:100C800031E096E32191222371F08093E9003093C3
:100C9000EB00DF0111972C912093EC009093ED0075
:100CA0008F5F873079F78EE78093EA001092EA0031
:100CB0008F8980934601DBCE8B8D9C8D1092E9004D
:100CC00010923401109233019093320180933101DC
:100CD000898D811192C08E899D89913A49F4813222
:100CE00009F07DCF47E050E064E071E080E0B3CFF1
:100CF000913209F074CF833269F48F89988DB0E016
:100D0000A0E08093000190930101A0930201B093B1
:100D10000301ADCE803269F48091E80082FFFCCF00
:100D200067E084E091E00E9405028BEF8093E80089
:100D30009ECE823209F09BCE8F8980930B01EEEF1D
:100D4000FFE7859194918B3F9C4D51F1E0E0F8E0F5
:100D50008091040190910501A0910601B0910701D5
:100D6000803B9440A105B105F1F480910B0180FD19
:100D70001AC0EE3F8AE0F80789F587E797E7918385
:100D80008083809160008093350188E19BE00FB6FD
:100D9000F894A895809360000FBE9093600067CE92
:100DA000EEEFFAE0D5CF808191818737974709F040
:100DB0005ECEA895809160008861809360008091EC
:100DC000350180936000EE3F2AE0F20789F08091C0
:100DD000FE0A9091FF0A9183808349CE80819181A0
:100DE0008737980751F29093FF0A8093FE0AC5CF88
:100DF0001092FF0A1092FE0A3ACE0E943901DC01DD
:100E000012960D911C910115110509F4E8CED80137
:100E1000ED91FC910190F081E02DBE016B5E7F4F62
:100E2000C8010995811123CEF80100851185EBCF0A
:100E3000181619060CF41BCED2CEF1E0FF12BECE6E
:100E40006FE171E004CF1F920F920FB60F92112441
:100E50002F933F938F939F93AF93BF9380912901DB
:100E600090912A01A0912B01B0912C013091280181
:100E700023E0230F2D3758F50196A11DB11D2093B6
:100E800028018093290190932A01A0932B01B0930C
:100E90002C0180912D0190912E01A0912F01B091F4
:100EA00030010196A11DB11D80932D0190932E015B
:100EB000A0932F01B0933001BF91AF919F918F917B
:100EC0003F912F910F900FBE0F901F90189526E81D
:100ED000230F0296A11DB11DD2CF1F920F920FB604
:100EE0000F9211242F933F934F935F936F937F93B0
:100EF0008F939F93AF93BF93CF93DF93EF93FF9322
:100F00002091A80130E0F901E654FF4F8491F901E6
:100F1000EA57FE4FD491F901E959FE4FC491CC2311
:100F200079F081110E949302EC2FF0E0EE0FFF1F89
:100F3000E455FF4FA591B491EC91ED2381E009F4C4
:100F400080E02091AC013091AD012F5F3F4F309395
:100F5000AD012093AC019091AB01953618F096E06D
:100F60009093A7019091A701943009F466C0B8F45A
:100F70009230F1F0933009F444C09091AA01992382
:100F800009F46BC081117CC08091A901882309F408
:100F900063C08091A90161E00E94DF025EC09530CC
:100FA00009F457C0963049F791E0909378024FC00A
:100FB0008111E3CF2091AC013091AD012436310590
:100FC00028F41092AD011092AC01D7CF10927802A4
:100FD0001092AB01E091AB0191E09E0F9093AB01B9
:100FE000F0E02091AC013091AD01EE0FFF1FE9550B
:100FF000FE4F308727831092AD011092AC0193E031
:1010000019C0813009F0B9CFE091AB0191E09E0F9A
:101010009093AB01F0E02091AC013091AD01EE0F67
:10102000FF1FE955FE4F308727831092AD011092C4
:10103000AC0194E09093A701A0CF882359F22091AE
:10104000AC013091AD012536310508F496CF95E01D
:10105000F1CF811192CFB5CF2D9AFF91EF91DF9112
:10106000CF91BF91AF919F918F917F916F915F9140
:101070004F913F912F910F900FBE0F901F90189599
:101080008091A901882321F08091A90160E084CF9B
:101090002D98E3CFE7E5F1E01382128288EE93E02A
:1010A000A0E0B0E084839583A683B78387E191E0D5
:1010B000918380838FEF9FEF95878487E7EAF1E044
:1010C0008DE0818313820895CF93DF93CDB7DEB790
:1010D000AB970FB6F894DEBF0FBECDBF789484B542
:1010E000826084BD84B5816084BD85B5826085BD24
:1010F00085B5816085BD80916E00816080936E00B2
:1011000010928100809181008260809381008091A3
:101110008100816080938100809180008160809354
:101120008000809191008260809391008091910075
:101130008160809391008091900081608093900005
:101140008091C10084608093C1008091C100826061
:101150008093C1008091C10081608093C100809123
:10116000C30081608093C3008091C000826080933F
:10117000C0008091C20081608093C20080917A009B
:10118000846080937A0080917A00826080937A00F4
:1011900080917A00816080937A0080917A008068E3
:1011A00080937A0010924601109238011092370114
:1011B0008091D70081608093D70080EA8093D80027
:1011C00089B5806189BD89B5826089BD09B400FE99
:1011D000FDCF0E9432038091D8008F7C8061809384
:1011E000D8008091E000807F8093E0008091E10052
:1011F0008E7E8093E1008DE08093E200559A209AE4
:101200005D9828988FEF9FEF90936401809363011E
:10121000F8941092C00081E08093C1001092C20047
:101220001092C3001092C40083E08093BF0080E25C
:101230008093D1001092BF001092BF001092BE00A8
:1012400084E080937200789482E08093A7011092EA
:10125000AB018091A80190E0FC01EA57FE4F249178
:1012600089599E4FFC0184918823C9F090E0880F32
:10127000991FFC01E75AFE4F45915491FC01E55B33
:10128000FE4FA591B4919FB7F894FA018081209503
:10129000822380838C91E22FE823EC939FBF442428
:1012A0004A94542C3201A0E22A2E312C8EEA91E08D
:1012B00090935201809351018091AB0190E0909303
:1012C0005401809353018091780290E090935601ED
:1012D000809355018091A701853009F0C7C38091A3
:1012E000B0019091B101885891098D35910508F0B0
:1012F00051C08091AB01843009F58091B201909189
:10130000B30180974797D0F48091B4019091B501D3
:101310000997099798F41092500110924F0140924A
:101320004B0150924C0160924D0170924E0183E04E
:1013300090E090934801809347015AC38091AB019C
:10134000843440F18091B2019091B30182549109AB
:101350008E9700F590E080E040E050E0BA01FC019B
:10136000EC54FE4F2081318129503109293031055B
:1013700088F4FC01EA54FE4F208131812751310964
:101380002231310510F12081318126503109273079
:10139000310588F18091AB018A3108F461C08091F8
:1013A000AE019091AF01843F914050F510925001F1
:1013B00010924F0140924B0150924C0160924D01AE
:1013C00070924E018BE090E0B4CF440F551F661F22
:1013D000771F416004968038910509F630925001DC
:1013E00020924F0140934B0150934C0160934D016B
:1013F00070934E019CCF440F551F661F771FEACF95
:101400008091B0019091B10185974B9748F5E7EA3B
:10141000F1E082E090E0C12CD12C76019C012F5F9D
:101420003F4F4091AB014217130609F00CF4F6C090
:1014300043855485475051094730510508F0EDC0A8
:1014400025853685235131092F30310508F4D7C061
:10145000258536852A5031092930310508F4D8C050
:101460008091AB018A3108F43FC08091AE01909128
:10147000AF018032934008F499CF8091B0019091F0
:10148000B101C697869780F58091B2019091B30122
:10149000C697869748F5E7EAF1E083E090E0C12C33
:1014A000D12C76019C012F5F3F4F4091AB01421739
:1014B000130609F00CF4DAC0458556854C505109E5
:1014C0004B30510508F0D1C02785308925523109AC
:1014D0002B31310508F4BBC0278530892C503109E8
:1014E0002A30310508F4BCC08091AB01823238F15A
:1014F0008091B0019091B1010697079700F5E7EA56
:10150000F1E082E090E040E050E0BA01DC011196A9
:101510002091AB012A171B0609F00CF4D3C02385D8
:1015200034852E5131092731310508F4B6C02385A1
:1015300034852C5031092B30310508F4BDC01BA275
:101540001AA2E1E0F0E0FA83E9838091AB018D30EB
:1015500008F4E9C049E753E0BE016E5D7F4FCE015C
:1015600001960E940F04892B09F0DDC049E753E082
:10157000BE016E5D7F4FCE0101960E940F04019760
:1015800009F0D1C049E753E0BE016E5D7F4FCE0147
:1015900001960E940F048C01892B09F0C4C0812C94
:1015A000912C54012091AB0189819A812817190649
:1015B00009F00CF4A9C049E753E0BE016E5D7F4F0E
:1015C000CE0101960E940F047C0149E753E0BE0161
:1015D0006E5D7F4FCE0101960E940F04F1E0EF1681
:1015E000F10409F088C0892B09F09DC0880C991C72
:1015F000AA1CBB1C689480F80F5F1F4FD3CFCC0C84
:10160000DD1CEE1CFF1C6894C0F80296349606CFD1
:10161000CC0CDD1CEE1CFF1CF8CFC9010197959581
:1016200087959093500180934F010C972CF4109262
:10163000500110924F0114CFC0924B01D0924C0137
:10164000E0924D01F0924E0184E090E072CECC0C1D
:10165000DD1CEE1CFF1C6894C0F80296349622CF65
:10166000CC0CDD1CEE1CFF1CF8CFC9010197959531
:1016700087959093500180934F010C972CF4109212
:10168000500110924F0130CFC0924B01D0924C01CB
:10169000E0924D01F0924E0195CE440F551F661F0A
:1016A000771F4160258536853496235031092530D2
:1016B000310538F402962ACF440F551F661F771F55
:1016C000F1CFCD0101979595879590935001809327
:1016D0004F0140972CF41092500110924F012FCFE0
:1016E00040934B0150934C0160934D0170934E0118
:1016F0008CE090E01ECEEF28B1F40197A1F4880CA5
:10170000991CAA1CBB1C78CF1093500100934F0169
:1017100080924B0190924C01A0924D01B0924E01EB
:1017200081E090E006CE1BA21AA2A1E0B0E0BA834D
:10173000A9838091530190915401181619060CF059
:101740007EC0E0915101F091520182E090E09A83D5
:1017500089838281938189974E9708F070C083E0D6
:1017600090E09A838983848195810B970A9708F08A
:1017700066C04CEB51E0BE016E5D7F4FCE0101961D
:101780000E940F048C01892B09F059C04CEB51E0E9
:10179000BE016E5D7F4FCE0101960E940F0401973E
:1017A00009F04DC0812C912C5401209153013091AE
:1017B000540189819A81821793070CF0E2C04CEBA7
:1017C00051E0BE016E5D7F4FCE0101960E940F0475
:1017D0007C010330110539F14CEB51E0BE016E5D27
:1017E0007F4FCE0101960E940F046C01033011055A
:1017F00061F44CEB51E0BE016E5D7F4FCE0101966E
:101800000E940F04C816D906D1F4E114F10409F4BA
:10181000ABC0EA94EF2899F4CD2889F4880C991C80
:10182000AA1CBB1CABC04CEB51E0BE016E5D7F4FF0
:10183000CE0101960E940F04E816F90669F2E091C4
:101840005101F091520182819381C697869778F574
:10185000848195814B97459750F5DF0116967F015E
:1018600026ECE20EF11C20E030E040E050E060E0C9
:1018700070E080E090E00D911C91119709501109E2
:1018800008301105A0F412960D911C911397015187
:1018900011090D30110508F487C012960D911C91A5
:1018A0001397045011090530110508F4E7C0809121
:1018B000AB01893380F18281938189579109833506
:1018C000910548F584819581CA97899720F59F01F4
:1018D0002A5F3F4FC12CD12C760143E050E0D90163
:1018E0006D917C9111976A5071096930710598F476
:1018F00012966D917C911397665171096131710552
:1019000008F4C0C012966D917C91665071096730E1
:10191000710508F4E6C08091AB01823209F0E6C09F
:10192000828193810A97099708F0E0C0A091AB01EA
:10193000B0E0A150B048AA0FBB1FAE0FBF1F8D91E2
:101940009C910A97099708F0D1C01092500110920B
:101950004F0140924B0150924C0160924D017092A8
:101960004E0186E090E0E5CCCA94CD2809F067CF1F
:10197000880C991CAA1CBB1C689480F80F5F1F4F31
:1019800014CF1093500100934F0180924B0190921D
:101990004C01A0924D01B0924E01E2E0F0E0F093D4
:1019A0004801E093470124C001E00E945D122160DC
:1019B0001496AE15BF0509F05ECF20934B0130930E
:1019C0004C0140934D0150934E0100E20E94781269
:1019D0002093490130934A0185E090E090934801BB
:1019E0008093470180E390E09093500180934F01F2
:1019F00040914B0150914C0160914D0170914E010D
:101A000019A2FE01B196DB01CA018F709927AA279E
:101A1000BB2794E076956795579547959A95D1F7AA
:101A20008A300CF0EEC2805D82934115510561054C
:101A3000710549F7309769F0DF010D900020E9F753
:101A40001197AD014E1B5F0BBF0187E591E00E942E
:101A50004A0342E050E065E271E087E591E00E94D0
:101A60004A0382E08093A7011092AB0180E090E0EE
:101A7000892B09F41BCC0E94000015CC01E00E94C8
:101A80005D1296CFD701C601880F991FAA1FBB1FF1
:101A90006C017D016894C0F84E5F5F4F2C5F3F4F33
:101AA0004B33510509F01BCF9F012A583F4FD901F5
:101AB0002D913C912A5031092930310508F02BCF66
:101AC0002CE130E03093500120934F01C0924B0144
:101AD000D0924C01E0924D01F0924E018AE090E0EC
:101AE00028CCCC0CDD1CEE1CFF1CD6CF8281938150
:101AF000895791098335910560F58091AB01813259
:101B000040F184819581CA97899718F59F012A5FD2
:101B10003F4FC12CD12C760143E050E0D9016D91AB
:101B20007C9111976A5071096930710590F4129691
:101B30006D917C911397665171096131710580F146
:101B400012966D917C91665071096730710508F4A9
:101B500054C0828193818C549109C59708F081C04B
:101B60008091AB01843009F04DC0848195818097CC
:101B7000479708F047C0868197810997099708F031
:101B800041C01092500110924F0140924B0150926F
:101B90004C0160924D0170924E0187E090E0C9CBFC
:101BA000D701C601880F991FAA1FBB1F6C017D01B9
:101BB0006894C0F84E5F5F4F2C5F3F4F4332510532
:101BC00009F0ACCF9F012A5B3F4FD9012D913C9189
:101BD0002A5031092930310508F0BBCF20E130E02F
:101BE0003093500120934F01C0924B01D0924C0191
:101BF000E0924D01F0924E01B4CECC0CDD1CEE1CF7
:101C0000FF1CD8CF8091AB01843458F18481958139
:101C100089549109C39728F59F012A5F3F4FBF015F
:101C20006A577F4FC12CD12C7601D9014D915C911F
:101C30001197495051094930510598F412964D9128
:101C40005C911397465151094131510508F4A2C0E6
:101C500012964D915C91465051094730510508F458
:101C6000B6C08091AB018634C0F1828193810C971C
:101C70000B9798F5848195810997099770F586816E
:101C800097818C974F9748F58085918589974D97D7
:101C900020F59F01265F3F4FC12CD12C760145E0F6
:101CA00050E0D9016D917C9111976C5071096B30A6
:101CB000710598F412966D917C9113976E5171098C
:101CC0006731710508F488C012966D917C91695056
:101CD00071096930710508F4ACC08091AB01883599
:101CE00008F4B6C082819381855891098B3591059E
:101CF00008F0AEC084819581825491098E9708F0D6
:101D0000A7C08F01045C1F4F8DE190E030E020E020
:101D10004091AB014450550B8417950714F5A80169
:101D200042505109DA014D915C91495051094830B6
:101D3000510508F08DC0BC016F5F7F4FD8014D91F8
:101D40005C911197475051094730510508F476C00E
:101D50004D915C91485151094231510508F475C0CB
:101D6000CB010197959587959093500180934F01F2
:101D70008A970CF46DC0C901330FAA0BBB0B80937B
:101D80004B0190934C01A0934D01B0934E0189E01B
:101D900090E0CFCAD701C601880F991FAA1FBB1FA9
:101DA0006C017D016894C0F82C5F3F4F6217730788
:101DB00009F03BCF3092500120924F01C0924B016D
:101DC000D0924C01E0924D01F0924E01E6CECC0C47
:101DD000DD1CEE1CFF1CE8CFD701C601880F991F40
:101DE000AA1FBB1F6C017D016894C0F84E5F5F4F56
:101DF0002C5F3F4F4534510509F053CF9F012657C3
:101E00003F4FD9012D913C912C5031092B30310598
:101E100008F063CF3092500120924F01C0924B01E5
:101E2000D0924C01E0924D01F0924E0188E090E09A
:101E300080CACC0CDD1CEE1CFF1CD8CF220F331F38
:101E4000216002960C5F1F4F63CF220F331FF9CF23
:101E50008091AB01803279F5828193810697069754
:101E600050F5848195810997099728F59F012A5F8C
:101E70003F4FBF01625C7F4FC12CD12C7601D9014D
:101E80004D915C911197465051094630510598F497
:101E900012964D915C911397495151094331510567
:101EA00008F489C012964D915C914950510949300E
:101EB000510508F4A1C080915301909154019FA352
:101EC0008EA306970CF4CDCDDF011296BDA3ACA373
:101ED00025ECC22E2DE9D22E2CE1E22E21E8F22EA5
:101EE00003E010E0ECA1FDA164817581A080B180C8
:101EF00090E080E00E941D1168A779A78AA79BA7A0
:101F0000B50190E080E00E941D114B015C012DECB9
:101F10003CEC4CE45FE30E94CF119B01AC0168A54F
:101F200079A58AA59BA50E947010F0E0E0E087FDEE
:101F300016C02DEC3CEC4CE45FE368A579A58AA5BE
:101F40009BA50E94CF119B01AC01C501B4010E9469
:101F50007010E2E0F0E087FD02C0E1E0F0E0A701F0
:101F6000960163E971E080E091E00E943C126F010C
:101F7000FF0FEE08FF08C626D726E826F9260F5FD2
:101F80001F4F8CA19DA102969DA38CA3AEA1BFA1C2
:101F9000A017B10709F0A6CFC0924B01D0924C0117
:101FA000E0924D01F0924E013092500120924F018B
:101FB000EFEFFFEFF4CCD701C601880F991FAA1FDE
:101FC000BB1F6C017D016894C0F82C5F3F4F621706
:101FD000730709F054CFEEE0F0E0F0935001E09386
:101FE0004F01C0924B01D0924C01E0924D01F09212
:101FF0004E018FE090E09DC9CC0CDD1CEE1CFF1C57
:10200000E4CF895C11CD5058BB27AA270E941B1032
:102010000C9495110E94871138F00E948E1120F0C7
:1020200039F49F3F19F426F40C9484110EF4E095D2
:10203000E7FB0C947E11E92F0E94A61158F3BA1702
:10204000620773078407950720F079F4A6F50C94CE
:10205000C8110EF4E0950B2EBA2FA02D0B01B9017B
:1020600090010C01CA01A0011124FF27591B99F00E
:10207000593F50F4503E68F11A16F040A22F232F1A
:10208000342F4427585FF3CF469537952795A7956A
:10209000F0405395C9F77EF41F16BA0B620B730B11
:1020A000840BBAF09150A1F0FF0FBB1F661F771F82
:1020B000881FC2F70EC0BA0F621F731F841F48F437
:1020C000879577956795B795F7959E3F08F0B0CFC0
:1020D0009395880F08F09927EE0F979587950895A7
:1020E0000E945A1108F481E008950E9489100C940E
:1020F00095110E948E1158F00E94871140F029F42A
:102100005F3F29F00C947E1151110C94C9110C946D
:1021100084110E94A61168F39923B1F3552391F31A
:10212000951B550BBB27AA2762177307840738F046
:102130009F5F5F4F220F331F441FAA1FA9F335D0A3
:102140000E2E3AF0E0E832D091505040E695001C57
:10215000CAF72BD0FE2F29D0660F771F881FBB1F11
:10216000261737074807AB07B0E809F0BB0B802DEF
:10217000BF01FF2793585F4F3AF09E3F510578F01B
:102180000C947E110C94C9115F3FE4F3983ED4F394
:10219000869577956795B795F7959F5FC9F7880FEF
:1021A000911D9695879597F90895E1E0660F771F41
:1021B000881FBB1F621773078407BA0720F0621BD2
:1021C000730B840BBA0BEE1F88F7E09508950E94FD
:1021D000EE106894B1110C94C91108950E94AE11CB
:1021E00088F09F5798F0B92F9927B751B0F0E1F0D8
:1021F000660F771F881F991F1AF0BA95C9F714C088
:10220000B13091F00E94C811B1E008950C94C8114A
:10221000672F782F8827B85F39F0B93FCCF38695C0
:1022200077956795B395D9F73EF49095809570951D
:1022300061957F4F8F4F9F4F0895E89409C097FB9A
:102240003EF490958095709561957F4F8F4F9F4F8D
:102250009923A9F0F92F96E9BB279395F6958795D1
:1022600077956795B795F111F8CFFAF4BB0F11F494
:1022700060FF1BC06F5F7F4F8F4F9F4F16C088233B
:1022800011F096E911C0772321F09EE8872F762F71
:1022900005C0662371F096E8862F70E060E02AF0B2
:1022A0009A95660F771F881FDAF7880F969587959E
:1022B00097F90895990F0008550FAA0BE0E8FEEF73
:1022C00016161706E807F907C0F012161306E407FA
:1022D000F50798F0621B730B840B950B39F40A26F3
:1022E00061F0232B242B252B21F408950A2609F4D1
:1022F000A140A6958FEF811D811D089597F99F67D5
:1023000080E870E060E008959FEF80EC089500247D
:102310000A941616170618060906089500240A944A
:1023200012161306140605060895092E0394000CD0
:1023300011F4882352F0BB0F40F4BF2B11F460FF5F
:1023400004C06F5F7F4F8F4F9F4F089557FD905888
:10235000440F551F59F05F3F71F04795880F97FB69
:10236000991F61F09F3F79F0879508951216130623
:102370001406551FF2CF4695F1DF08C01616170652
:102380001806991FF1CF8695710561050894089587
:10239000E894BB2766277727CB0197F908950E9419
:1023A000E2110C9495110E94871138F00E948E1151
:1023B00020F0952311F00C947E110C9484111124BB
:1023C0000C94C9110E94A61170F3959FC1F3950F4B
:1023D00050E0551F629FF001729FBB27F00DB11DA9
:1023E000639FAA27F00DB11DAA1F649F6627B00D39
:1023F000A11D661F829F2227B00DA11D621F739F22
:10240000B00DA11D621F839FA00D611D221F749F2F
:102410003327A00D611D231F849F600D211D822F76
:10242000762F6A2F11249F5750409AF0F1F088239D
:102430004AF0EE0FFF1FBB1F661F771F881F9150CA
:102440005040A9F79E3F510580F00C947E110C94EA
:10245000C9115F3FE4F3983ED4F38695779567956D
:10246000B795F795E7959F5FC1F7FE2B880F911DF4
:102470009695879597F90895DB018F939F930E9416
:102480005212BF91AF91A29F800D911DA39F900DFD
:10249000B29F900D11240895EE0FFF1F0590F49147
:1024A000E02D09940E949312A59F900DB49F900D6A
:1024B000A49F800D911D11240895002E083090F0E6
:1024C000982F872F762F652F542F432F322F2227B7
:1024D0000850F4CF220F331F441F551F661F771F6C
:1024E000881F991F0A95B2F7002D089597FD109443
:1024F000002E083098F00850232F342F452F562FE8
:10250000672F782F892F912DF4CF15949795879564
:102510007795679557954795379527950A95AAF723
:102520001124002D0895A29FB001B39FC001A39F65
:10253000700D811D1124911DB29F700D811D1124FC
:08254000911D0895F894FFCFEE
:10254800FFFFFFFF00E100000000000000C18081E4
:102558000000000000000012024A0333022802793A
:0825680002370255020D0A00C2
:00000001FF
